{
  "contractName": "Accounts",
  "abi": [
    {
      "inputs": [
        {
          "internalType": "uint256",
          "name": "",
          "type": "uint256"
        }
      ],
      "name": "accountAddressess",
      "outputs": [
        {
          "internalType": "address",
          "name": "",
          "type": "address"
        }
      ],
      "stateMutability": "view",
      "type": "function",
      "constant": true
    },
    {
      "inputs": [
        {
          "internalType": "address",
          "name": "",
          "type": "address"
        }
      ],
      "name": "accounts",
      "outputs": [
        {
          "internalType": "string",
          "name": "name",
          "type": "string"
        },
        {
          "internalType": "uint256",
          "name": "amount",
          "type": "uint256"
        },
        {
          "internalType": "string",
          "name": "contact_address",
          "type": "string"
        },
        {
          "internalType": "string",
          "name": "email",
          "type": "string"
        }
      ],
      "stateMutability": "view",
      "type": "function",
      "constant": true
    },
    {
      "inputs": [
        {
          "internalType": "address",
          "name": "accountAddress",
          "type": "address"
        },
        {
          "internalType": "string",
          "name": "name",
          "type": "string"
        },
        {
          "internalType": "uint256",
          "name": "amount",
          "type": "uint256"
        },
        {
          "internalType": "string",
          "name": "contact_address",
          "type": "string"
        },
        {
          "internalType": "string",
          "name": "email",
          "type": "string"
        }
      ],
      "name": "addNewAccount",
      "outputs": [],
      "stateMutability": "nonpayable",
      "type": "function"
    },
    {
      "inputs": [
        {
          "internalType": "address",
          "name": "accountAddress",
          "type": "address"
        },
        {
          "internalType": "uint256",
          "name": "amount",
          "type": "uint256"
        }
      ],
      "name": "withdraw",
      "outputs": [],
      "stateMutability": "nonpayable",
      "type": "function"
    },
    {
      "inputs": [
        {
          "internalType": "address",
          "name": "accountAddress",
          "type": "address"
        },
        {
          "internalType": "uint256",
          "name": "amount",
          "type": "uint256"
        }
      ],
      "name": "deposit",
      "outputs": [],
      "stateMutability": "nonpayable",
      "type": "function"
    },
    {
      "inputs": [],
      "name": "getAccounts",
      "outputs": [
        {
          "internalType": "address[]",
          "name": "",
          "type": "address[]"
        }
      ],
      "stateMutability": "view",
      "type": "function",
      "constant": true
    },
    {
      "inputs": [
        {
          "internalType": "address",
          "name": "accountAddress",
          "type": "address"
        }
      ],
      "name": "getAccountDetails",
      "outputs": [
        {
          "components": [
            {
              "internalType": "string",
              "name": "name",
              "type": "string"
            },
            {
              "internalType": "uint256",
              "name": "amount",
              "type": "uint256"
            },
            {
              "internalType": "string",
              "name": "contact_address",
              "type": "string"
            },
            {
              "internalType": "string",
              "name": "email",
              "type": "string"
            }
          ],
          "internalType": "struct Accounts.AccountInfo",
          "name": "",
          "type": "tuple"
        }
      ],
      "stateMutability": "view",
      "type": "function",
      "constant": true
    }
  ],
  "bytecode": "0x608060405234801561001057600080fd5b5061120c806100206000396000f3fe608060405234801561001057600080fd5b506004361061007d5760003560e01c806347e7ef241161005b57806347e7ef24146100fe5780635e5c06e21461011a5780638a48ac031461014d578063f3fef3a31461016b5761007d565b80630a2a86f6146100825780632aceb534146100b257806332dc54ca146100e2575b600080fd5b61009c60048036038101906100979190610876565b610187565b6040516100a991906108e4565b60405180910390f35b6100cc60048036038101906100c7919061092b565b6101c6565b6040516100d99190610a68565b60405180910390f35b6100fc60048036038101906100f79190610bbf565b6103de565b005b61011860048036038101906101139190610c8e565b6104f6565b005b610134600480360381019061012f919061092b565b610552565b6040516101449493929190610d27565b60405180910390f35b61015561071a565b6040516101629190610e3f565b60405180910390f35b61018560048036038101906101809190610c8e565b6107a8565b005b6001818154811061019757600080fd5b906000526020600020016000915054906101000a900473ffffffffffffffffffffffffffffffffffffffff1681565b6101ce610804565b6000808373ffffffffffffffffffffffffffffffffffffffff1673ffffffffffffffffffffffffffffffffffffffff16815260200190815260200160002060405180608001604052908160008201805461022790610e90565b80601f016020809104026020016040519081016040528092919081815260200182805461025390610e90565b80156102a05780601f10610275576101008083540402835291602001916102a0565b820191906000526020600020905b81548152906001019060200180831161028357829003601f168201915b50505050508152602001600182015481526020016002820180546102c390610e90565b80601f01602080910402602001604051908101604052809291908181526020018280546102ef90610e90565b801561033c5780601f106103115761010080835404028352916020019161033c565b820191906000526020600020905b81548152906001019060200180831161031f57829003601f168201915b5050505050815260200160038201805461035590610e90565b80601f016020809104026020016040519081016040528092919081815260200182805461038190610e90565b80156103ce5780601f106103a3576101008083540402835291602001916103ce565b820191906000526020600020905b8154815290600101906020018083116103b157829003601f168201915b5050505050815250509050919050565b6040518060800160405280858152602001848152602001838152602001828152506000808773ffffffffffffffffffffffffffffffffffffffff1673ffffffffffffffffffffffffffffffffffffffff1681526020019081526020016000206000820151816000019081610452919061106d565b50602082015181600101556040820151816002019081610472919061106d565b506060820151816003019081610488919061106d565b509050506001859080600181540180825580915050600190039060005260206000200160009091909190916101000a81548173ffffffffffffffffffffffffffffffffffffffff021916908373ffffffffffffffffffffffffffffffffffffffff1602179055505050505050565b806000808473ffffffffffffffffffffffffffffffffffffffff1673ffffffffffffffffffffffffffffffffffffffff1681526020019081526020016000206001016000828254610547919061116e565b925050819055505050565b600060205280600052604060002060009150905080600001805461057590610e90565b80601f01602080910402602001604051908101604052809291908181526020018280546105a190610e90565b80156105ee5780601f106105c3576101008083540402835291602001916105ee565b820191906000526020600020905b8154815290600101906020018083116105d157829003601f168201915b50505050509080600101549080600201805461060990610e90565b80601f016020809104026020016040519081016040528092919081815260200182805461063590610e90565b80156106825780601f1061065757610100808354040283529160200191610682565b820191906000526020600020905b81548152906001019060200180831161066557829003601f168201915b50505050509080600301805461069790610e90565b80601f01602080910402602001604051908101604052809291908181526020018280546106c390610e90565b80156107105780601f106106e557610100808354040283529160200191610710565b820191906000526020600020905b8154815290600101906020018083116106f357829003601f168201915b5050505050905084565b6060600180548060200260200160405190810160405280929190818152602001828054801561079e57602002820191906000526020600020905b8160009054906101000a900473ffffffffffffffffffffffffffffffffffffffff1673ffffffffffffffffffffffffffffffffffffffff1681526020019060010190808311610754575b5050505050905090565b806000808473ffffffffffffffffffffffffffffffffffffffff1673ffffffffffffffffffffffffffffffffffffffff16815260200190815260200160002060010160008282546107f991906111a2565b925050819055505050565b6040518060800160405280606081526020016000815260200160608152602001606081525090565b6000604051905090565b600080fd5b600080fd5b6000819050919050565b61085381610840565b811461085e57600080fd5b50565b6000813590506108708161084a565b92915050565b60006020828403121561088c5761088b610836565b5b600061089a84828501610861565b91505092915050565b600073ffffffffffffffffffffffffffffffffffffffff82169050919050565b60006108ce826108a3565b9050919050565b6108de816108c3565b82525050565b60006020820190506108f960008301846108d5565b92915050565b610908816108c3565b811461091357600080fd5b50565b600081359050610925816108ff565b92915050565b60006020828403121561094157610940610836565b5b600061094f84828501610916565b91505092915050565b600081519050919050565b600082825260208201905092915050565b60005b83811015610992578082015181840152602081019050610977565b60008484015250505050565b6000601f19601f8301169050919050565b60006109ba82610958565b6109c48185610963565b93506109d4818560208601610974565b6109dd8161099e565b840191505092915050565b6109f181610840565b82525050565b60006080830160008301518482036000860152610a1482826109af565b9150506020830151610a2960208601826109e8565b5060408301518482036040860152610a4182826109af565b91505060608301518482036060860152610a5b82826109af565b9150508091505092915050565b60006020820190508181036000830152610a8281846109f7565b905092915050565b600080fd5b600080fd5b7f4e487b7100000000000000000000000000000000000000000000000000000000600052604160045260246000fd5b610acc8261099e565b810181811067ffffffffffffffff82111715610aeb57610aea610a94565b5b80604052505050565b6000610afe61082c565b9050610b0a8282610ac3565b919050565b600067ffffffffffffffff821115610b2a57610b29610a94565b5b610b338261099e565b9050602081019050919050565b82818337600083830152505050565b6000610b62610b5d84610b0f565b610af4565b905082815260208101848484011115610b7e57610b7d610a8f565b5b610b89848285610b40565b509392505050565b600082601f830112610ba657610ba5610a8a565b5b8135610bb6848260208601610b4f565b91505092915050565b600080600080600060a08688031215610bdb57610bda610836565b5b6000610be988828901610916565b955050602086013567ffffffffffffffff811115610c0a57610c0961083b565b5b610c1688828901610b91565b9450506040610c2788828901610861565b935050606086013567ffffffffffffffff811115610c4857610c4761083b565b5b610c5488828901610b91565b925050608086013567ffffffffffffffff811115610c7557610c7461083b565b5b610c8188828901610b91565b9150509295509295909350565b60008060408385031215610ca557610ca4610836565b5b6000610cb385828601610916565b9250506020610cc485828601610861565b9150509250929050565b600082825260208201905092915050565b6000610cea82610958565b610cf48185610cce565b9350610d04818560208601610974565b610d0d8161099e565b840191505092915050565b610d2181610840565b82525050565b60006080820190508181036000830152610d418187610cdf565b9050610d506020830186610d18565b8181036040830152610d628185610cdf565b90508181036060830152610d768184610cdf565b905095945050505050565b600081519050919050565b600082825260208201905092915050565b6000819050602082019050919050565b610db6816108c3565b82525050565b6000610dc88383610dad565b60208301905092915050565b6000602082019050919050565b6000610dec82610d81565b610df68185610d8c565b9350610e0183610d9d565b8060005b83811015610e32578151610e198882610dbc565b9750610e2483610dd4565b925050600181019050610e05565b5085935050505092915050565b60006020820190508181036000830152610e598184610de1565b905092915050565b7f4e487b7100000000000000000000000000000000000000000000000000000000600052602260045260246000fd5b60006002820490506001821680610ea857607f821691505b602082108103610ebb57610eba610e61565b5b50919050565b60008190508160005260206000209050919050565b60006020601f8301049050919050565b600082821b905092915050565b600060088302610f237fffffffffffffffffffffffffffffffffffffffffffffffffffffffffffffffff82610ee6565b610f2d8683610ee6565b95508019841693508086168417925050509392505050565b6000819050919050565b6000610f6a610f65610f6084610840565b610f45565b610840565b9050919050565b6000819050919050565b610f8483610f4f565b610f98610f9082610f71565b848454610ef3565b825550505050565b600090565b610fad610fa0565b610fb8818484610f7b565b505050565b5b81811015610fdc57610fd1600082610fa5565b600181019050610fbe565b5050565b601f82111561102157610ff281610ec1565b610ffb84610ed6565b8101602085101561100a578190505b61101e61101685610ed6565b830182610fbd565b50505b505050565b600082821c905092915050565b600061104460001984600802611026565b1980831691505092915050565b600061105d8383611033565b9150826002028217905092915050565b61107682610958565b67ffffffffffffffff81111561108f5761108e610a94565b5b6110998254610e90565b6110a4828285610fe0565b600060209050601f8311600181146110d757600084156110c5578287015190505b6110cf8582611051565b865550611137565b601f1984166110e586610ec1565b60005b8281101561110d578489015182556001820191506020850194506020810190506110e8565b8683101561112a5784890151611126601f891682611033565b8355505b6001600288020188555050505b505050505050565b7f4e487b7100000000000000000000000000000000000000000000000000000000600052601160045260246000fd5b600061117982610840565b915061118483610840565b925082820190508082111561119c5761119b61113f565b5b92915050565b60006111ad82610840565b91506111b883610840565b92508282039050818111156111d0576111cf61113f565b5b9291505056fea26469706673582212205cd1d40d1012060194ecf5022da11334184dd8da30563cc5a314e564325eb11364736f6c63430008110033",
  "immutableReferences": {},
  "source": "// SPDX-License-Identifier: UNLICENSED\npragma solidity ^0.8.11;\n\ncontract Accounts {\n    struct AccountInfo {\n        string name;\n        uint256 amount;\n        string contact_address;\n        string email;\n    }\n\n    mapping(address => AccountInfo) public accounts;\n    address[] public accountAddressess;\n\n    function addNewAccount(\n        address accountAddress,\n        string memory name,\n        uint256 amount,\n        string memory contact_address,\n        string memory email\n    ) public {\n        accounts[accountAddress] = AccountInfo(\n            name,\n            amount,\n            contact_address,\n            email\n        );\n        accountAddressess.push(accountAddress);\n    }\n\n    function withdraw(address accountAddress, uint256 amount) public {\n        accounts[accountAddress].amount -= amount;\n    }\n\n    function deposit(address accountAddress, uint256 amount) public {\n        accounts[accountAddress].amount += amount;\n    }\n\n    function getAccounts() public view returns (address[] memory) {\n        return accountAddressess;\n    }\n\n    function getAccountDetails(address accountAddress)\n        public\n        view\n        returns (AccountInfo memory)\n    {\n        return accounts[accountAddress];\n    }\n}\n",
  "sourcePath": "/Users/parbatlama/Documents/web_dev_practise/dapp/smartcontract/contracts/Account.sol",
  "compiler": {
    "name": "solc",
    "version": "0.8.17+commit.8df45f5f.Emscripten.clang"
  },
  "schemaVersion": "3.4.10",
  "updatedAt": "2022-10-23T05:44:23.286Z",
  "networkType": "ethereum",
  "devdoc": {
    "kind": "dev",
    "methods": {},
    "version": 1
  },
  "userdoc": {
    "kind": "user",
    "methods": {},
    "version": 1
  }
}